:10000000401700206D0C000003490000590C00004F
:10001000590C0000590C0000590C000000000000B1
:10002000000000000000000000000000A50C00001F
:10003000590C0000000000007D0E0000590C00006B
:10004000F90E0000F90E0000F90E0000F90E000094
:10005000F90E0000F90E0000F90E0000F90E000084
:10006000F90E0000F90E0000F90E0000F90E000074
:10007000F90E0000F90E0000F90E0000F90E000064
:10008000F90E0000F90E0000F90E0000F90E000054
:10009000F90E0000F90E0000F90E0000F90E000044
:1000A000F90E0000F90E0000F90E0000F90E000034
:1000B000F90E0000F90E0000F90E0000F90E000024
:1000C000F90E0000F90E0000F90E0000F90E000014
:1000D000F90E0000F90E0000F90E0000F90E000004
:1000E000F90E0000F90E0000F90E0000F90E0000F4
:1000F000F90E0000F90E0000F90E0000F90E0000E4
:1001000010B58CB000F072F900F0D8F800F066F885
:10011000052000F0F3F81022002107A805F0FCFDEF
:1001200008231F4C8DF8293019220023142103A81D
:100130000B9404F028FA4FF0FF324FF0FF33012107
:1001400007A803F019FD002200230DF10B01204642
:1001500002F0C0FE0028EED19DF80B30DBB903A8F9
:1001600004F01EFA0F4804F0EFF99DF80E300193E9
:100170009DF80D300C4A00930C219DF80C3004A81A
:1001800003F006FF02230521CDE90031054804AB49
:10019000192204F0DEF9034804F08EF9D3E700BF1A
:1001A0004801002044050020346200001FB50223EE
:1001B000CDE901018DF80C309DF80C30064843F074
:1001C00002038DF80C30836801229C6801A93C234E
:1001D000A04704B010BD00BFC85E0000014819214F
:1001E00004F045B9516700002DE9F04F85B0144C7B
:1001F0000E9DC3EBC30389461C444FF0000805F174
:10020000FF3B0BEB020A09EB0507042614F8083044
:100210003341D90707D5CDF800A07B1E791B039287
:1002200004F07DF9039A013E731C2F44EED108F1CE
:100230000108B8F1070F2A44E3D105B0BDE8F08FFB
:100240006A67000013B51A4CD4F840319BB1002303
:10025000C4F84031D4F840218DF807300023154808
:1002600000220DF1070105F004FBD4F8403503F539
:100270000043C4F840350E4CD4F84431ABB10023F0
:10028000C4F84431D4F8443101238DF807300022FA
:10029000002308480DF1070105F0EBFA064AD4F8EF
:1002A000443512681344C4F8443502B010BD00BF91
:1002B0000040024048010020F803002038B50E4CF1
:1002C000012500224FF400436560A560C4F80825AD
:1002D000C4F84035C4F84021D4F840314FF480339D
:1002E000C4F804332946242000F00AFD242000F03D
:1002F000EBFC256038BD00BF00400240421E47F6BF
:10030000FE739A4215D80B4A4FF40043B3FBF0F347
:100310001360094BD3F8041512680A44C3F8442546
:100320000022C3F84421D3F844214FF40032C3F82B
:1003300004237047F80300200040024007B505235E
:100340008DF80730002200230DF10701044805F065
:1003500090FA044804F0E5F903B05DF804FB00BF2F
:10036000480100204362000007B502238DF80730E2
:10037000002200230DF10701044805F07AFA044831
:1003800004F0CFF903B05DF804FB00BF4801002082
:100390004862000007B503238DF8073000220023D0
:1003A0000DF10701044805F064FA044804F0B9F9B6
:1003B00003B05DF804FB00BF480100204E6200005E
:1003C00007B504238DF80730002200230DF1070143
:1003D000044805F04EFA044804F0A3F903B05DF8B0
:1003E00004FB00BF480100205462000008B52B4800
:1003F00005F011FA08B9012008BD284805F00BFAEC
:100400000028F8D0254805F006FA0028F3D0234844
:1004100005F001FA0028EED0214804F0DCF820486D
:1004200004F0EDF81F4A204B536011464FF400636F
:100430001A48936004F0C9F81C4804F0CCF81B4833
:1004400004F0DDF81A4A1B4B536011464FF48053F9
:100450001248936004F0B9F8174804F0BCF8164845
:1004600004F0CDF8154A164B536011464FF08073D7
:100470000A48936004F0A9F8124804F0ACF8114857
:1004800004F0BDF8104A114B0448536011464FF078
:100490000073936004F099F80020ADE7905E0000CF
:1004A000F06000002004002069030000E860000004
:1004B0001404002095030000E06000000804002000
:1004C000C1030000D8600000FC0300203D030000D1
:1004D00008B5024804F025F9002008BD5A62000062
:1004E000014B1B68184700BF00000020014B18603B
:1004F000704700BF0000002030B5044685B00D46AF
:1005000010220021684605F007FC02238DF8023016
:100510002A46044B01932146684603F063FD05B06B
:1005200030BD00BFE10400002DE9F047058B044613
:10053000280717460CD501290CBF45F0100545F0DA
:100540002005258387F31188BFF36F8FBDE8F087FF
:10055000022905F0070540F09480204604F0EEF8EB
:10056000052864D801A353F820F000BF450500001A
:10057000830600002F060000F10500000B060000B6
:100580001D06000001F007035A1F012A1FD8002290
:1005900021F00701062BD4F8008089B2C4E90022BB
:1005A00009D1434603E0628B013262831B68002B52
:1005B000F9D141F002012183204604F0BFF84FF049
:1005C000000900286DD041F02001218369E0042B4F
:1005D0000AD121F0070189B22183204604F0AEF848
:1005E00010B141F0200121834FF00008C14658E0CE
:1005F0002369D3F80090238B23F0070343F006030D
:1006000023834FF0000846464BE02369D3F804905B
:10061000238B23F0070343F00403F1E72369D3F8A6
:100620000890238B23F0070343F00503E8E74FF01E
:100630000008C146E7E7012243F00803238387F35C
:100640001188BFF36F8F002A3BD1B8F1000F4AD158
:10065000B9F1000F02D02D492046C847EFF31187AA
:10066000202383F31288BFF36F8F238B23F00803BB
:100670009BB22383D9063FD523F01002228303F0D7
:1006800007056669218B002EBFF67CAF0023D4F8E6
:10069000008021F00701C4E9003341F0010121830A
:1006A0009946238B03F0070AAA4502D0A268002AC4
:1006B000C1D1B8F1000F02D1B9F1000FDAD0002298
:1006C000BAE7A1680029C0D00D680029BDD04F68E5
:1006D000334652462046B8471DB12B6829461D4671
:1006E000F3E72B46FAE74146334652462046D8F810
:1006F000008004F04FF8A8E79A067FF523AF23F0B7
:100700002002228303F0070527E700BFC14700004E
:10071000014B036000207047F860000080B505467B
:100720000E461746984602F0B1FF034600F0F6FB6E
:10073000DFF81890044649F8003042463046394602
:10074000A84754F8090000F083FB00BF0800000030
:1007500008B50348034A0021121A04F0CAF808BD7C
:10076000780100204C0900200748084A084908B5CC
:10077000121A04F0C0F80748074A0849BDE80840C3
:10078000121A04F0B8B800BF000000207801002061
:10079000046B00000000002000000020046B00003B
:1007A00038B505460C4699B1D1E901230F480968CF
:1007B00003F0B7FFD4E90423E1680D4803F0B1FF6B
:1007C000E1690C4803F0ADFFA1690B4803F0A9FFF4
:1007D000012D05D1EFF305810848103903F0A1FF81
:1007E00021462846BDE8384002F0C2B995620000B3
:1007F000C5620000F562000005630000346300007C
:1008000030BFFFF7FDBF00BF2DE9F0410B4EDFF811
:10081000308006EB0807CC1B0546324609492046C6
:1008200005F06CFAA01942460021083C05F074FA64
:10083000EC6707F10800BDE8F08100BF0000000090
:1008400004000000CC6000002DE9F843324D8046E2
:1008500032488946174603F064FFAB6ADE0622D5AC
:100860002F4803F05EFF1124AB6A1D0703D52D4806
:1008700003F057FF1224284DAB6A980715D52A4874
:1008800003F04FFF6E6BAB6A190642D5274831461D
:1008900003F047FFB9F1000F03D0AB6A23F08003E8
:1008A000AB62132403E01024DEE76FF015061A4D47
:1008B000AB6ADA0703D51E4803F033FF1424AB6A92
:1008C0009B0603D51B4803F02CFF1524124B9A6A94
:1008D000D50602D49A6A90070AD55B68190507D530
:1008E0004146304600F06AFA10B180F309880224CC
:1008F000094B9A6A920642BF5A6A22F400525A621F
:100900009A6A42F0FF029A6200233B702046BDE8DB
:10091000F8836FF01506C4E700ED00E048630000BF
:100920005F63000093630000A7630000C0630000E2
:10093000D7630000F763000010B51D4C1D4803F09D
:10094000F0FEA36A990130D51B4803F0EAFE1E2091
:10095000A36ADA0103D5194803F0E3FE1F20144C03
:10096000A36A1B0303D5164803F0DBFE2120A36A0C
:10097000590303D5134803F0D4FE22200C4CA36A7C
:100980009A0303D5104803F0CCFE2320A36ADB03AF
:1009900003D50E4803F0C5FE2420054A936A6FEA8A
:1009A00003436FEA1343936210BD1D20D0E700BFDD
:1009B00000ED00E027640000406400005464000083
:1009C0006F6400008E640000B4640000CF64000017
:1009D00070B5244C064624480D4603F0A2FEA36AD7
:1009E000D90435D5214803F09CFE1720A36A1A05C7
:1009F00003D51F4803F095FE18201A4CA36A9B05E7
:100A00000FD51C4803F08DFEA16BA36A180407D50F
:100A1000194803F086FE1EB1A36A23F40043A362C3
:100A20001920104CA36A590503D5144803F079FE28
:100A30001A20A36ADA050DD5114803F072FE1B20B7
:100A4000084A936A43F47F43936200232B7070BD7E
:100A50001620CBE7A36A9B04F2D50A4803F061FE97
:100A60001C20EDE700ED00E0FB64000012650000D3
:100A700093630000246500003E650000546500009B
:100A800070650000F7630000F0B5614B04465868DC
:100A90008BB0C0F30803002585F31188BFF36F8F77
:100AA00002F07F46B6F17F4F06D102F00C06082E09
:100AB0000CD1584803F035FE574803F032FE0021B0
:100AC00008460BB0BDE8F040FFF76ABE16074CBF02
:100AD0000C460125002CEFD00026DA1E8DF80760A9
:100AE000092A00F28680DFE802F0057A7E768484A7
:100AF00084848482494803F014FE8DF80760444ED4
:100B0000F36A9A0704D5464803F00BFE00232AE057
:100B1000F36A002B01DA4348F6E7F36A5B00F5D588
:100B2000414803F0FEFD7369A26943F48073736169
:100B3000BFF34F8FBFF36F8F32F8023C726922F41C
:100B400080727261BFF34F8FBFF36F8F03F47F42E8
:100B5000B2F55F4F26D1DBB2022B23D12168334897
:100B600003F0DFFD23689DF80720CAB902AE04F147
:100B7000200720686168324603C20834BC4216462A
:100B8000F7D1099A002D40D0C2F3080121B96FEACC
:100B900052226FEA4222099202A91846FFF700FE8C
:100BA0000BB0F0BD1A4B9A6AD2B232B10DF1070206
:100BB00001212046FFF748FE0FE09A6A12F47F4FAA
:100BC00005D00DF107010120FFF702FF05E09B6A48
:100BD000B3F5803F9AD3FFF7AFFE0346C3E70DF1AD
:100BE00007020021E5E70DF107010020ECE71048BE
:100BF0008AE7A3F110020F4B0F4910F4F87F08BFEA
:100C000019460E4803F08DFD80E76FF30802C2E736
:100C100000ED00E0B7650000E3650000206600001D
:100C2000386600005A6600006966000089660000A8
:100C3000A6660000896500009E650000CB66000086
:100C4000044B5A6942F010025A615A6922F00802B4
:100C50005A61704700ED00E0EFF30880EFF309817F
:100C600001B57246FFF710FF01BD00BF0B4880F3CE
:100C7000088801F0ABF9202080F3118808484FF470
:100C80000461401880F30988EFF3148002210843BF
:100C900080F31488BFF36F8F00F058F840170020DE
:100CA000800900201EF0040F0CBFEFF30880EFF363
:100CB0000980816911F8021C0229FFD001B5724632
:100CC00003F01BFE01BD00BF40B2002807DB044A51
:100CD0004109012300F01F00834042F82130704792
:100CE00000E100E0054B420900F01F0053F822200C
:100CF000012303FA00F01040704700BF00E100E05C
:100D000040B20028A8BF00F1604001F10101B8BF66
:100D1000064B4FEA4111ACBF00F5614000F00F00F7
:100D2000C9B2B4BF195480F80013704714ED00E045
:100D3000044B054A23F07F039360BFF34F8FBFF34B
:100D40006F8F70470000000000ED00E008B5FFF76E
:100D5000EFFF0B4AD2F8883023F47003C2F88830D2
:100D6000EFF3148323F0040383F31488BFF36F8F2E
:100D7000FFF7EEFCFFF7F8FC00F0B2F801F0CAFF55
:100D800000ED00E042F8203C009B42F81C3C0A4980
:100D9000019B42F8183C029B42F8143C21F00101EF
:100DA0004FF0807342F8043C42F8081C0023203ABC
:100DB0000265C0F8803070471D070000094A0346ED
:100DC000906870B113F1160FC06E05D0A0F140020B
:100DD000934205D3834203D2814228BF002070474B
:100DE000002070470C05002008B515460B4A0C4B37
:100DF0009060C26F1A600E4600F0A2F82C4686F38F
:100E000009880020034B9847204600210022002338
:100E1000014C20471F4900001D0700000C05002061
:100E20002C040020014B10221A61704700ED00E0F5
:100E3000054B5A699B689A421FBF044A536843F0A6
:100E400080535360704700BF0C05002000ED00E0A8
:100E5000084B9B6883420BD1EFF3058343B1064BEC
:100E60005A6842F080525A605A6A22F400425A622A
:100E700004F00FBD0C05002000ED00E015498A6864
:100E80004FF030001044EFF3098C80E8F01F202071
:100E900080F31288BFF36F8F0F4F4FF000664A69DF
:100EA0008A603E60D06F0D4C2060D2F88000002335
:100EB000C2F8803080F3118804B5104600F040F885
:100EC000BDE8044002F1300090E8F01F8CF309887F
:100ED000704700000C05002004ED00E02C04002009
:100EE000044800232021C2180133302B82F800135C
:100EF000F9D1704700E100E008B5EFF30583064A39
:100F0000103B02EBC30152F8330049688847BDE843
:100F10000840FFF78DBF00BFE45E00000148006895
:100F2000704700002C040020024B034A03480121B3
:100F300000F076B80000042000000020F8600000F7
:100F4000C36E054A403B1360044B4021C2E90113C4
:100F50001046012100F06EB83004002000000B158F
:100F6000084AC2F898000B6823F01F03034343F0BC
:100F70001003C2F89C308B6843F00103C2F8A03024
:100F8000704700BF00ED00E02DE9F043DFF860801E
:100F900085B00E461F4604464FF00009B14523DADE
:100FA0006068D8B13FB1411E08421BD11F2819D932
:100FB0002368194216D12368019303F0C4FCA36887
:100FC00003430393D8F89050C5F30725D0B2013DF1
:100FD000A84207D801A9FFF7C3FF421C09F1010984
:100FE0000C34DBE76FF01502104605B0BDE8F08366
:100FF00000ED00E0044B0522C3F89420BFF34F8FAF
:10100000BFF36F8F704700BF00ED00E0BFF35F8F4D
:10101000024B0022C3F89420704700BF00ED00E0AF
:1010200010B5034C01232278FFF7AEFF207010BDEE
:101030004409002008B50B4A00231278FFF7A4FFEB
:1010400010F1160F07D0084A0021D2F89030C3F3F0
:101050000723984200DB08BDC2F89800C2F8A01030
:101060000130F2E74409002000ED00E02DE9F043F3
:101070005A4B5B4DD3F890302C68C3F307239C4246
:1010800085B000F2A780FFF7C1FF00200C26844244
:101090001AD1544EDFF8449134706846FFF738FB9C
:1010A000514C524D80460027B84514D133784B49F6
:1010B0000020D1F89020C2F307229342C0F284802E
:1010C000FFF798FF002045E0696806FB0011FFF775
:1010D00047FF0130DBE7009800EB07114FEA071CE0
:1010E000CB682340B3F5000F4DD00AD8B3F5001FED
:1010F00033D0B3F5800F3BD0B3F5801F13D0013749
:10110000D2E7B3F1007F47D0B3F1805F4DD0B3F1A8
:10111000807FF4D150F80C3088684A6803F013FCE3
:1011200040F0887009E050F80C3088684A6803F095
:101130000AFC40F0885040F43020CDE901230390B0
:10114000D9F890303078C3F30723013B984234D963
:101150006FF0150005B0BDE8F08350F80C308868DA
:101160004A6803F0F0FB40F0885040F40020E4E7C8
:1011700050F80C3088684A6803F0E5FB40F0C06026
:1011800040F40030D9E750F80C3088684A6803F022
:10119000DAFB40F08270D0E750F80C3088684A687B
:1011A00003F0D1FB40F48020C7E750F80C3088688A
:1011B0004A6803F0C8FB2843BFE701A9FFF7D0FE48
:1011C0003378013333709AE7C1F89830C1F8A00042
:1011D00001336EE74FF0FF30BCE700BF00ED00E0E9
:1011E00004610000440900200000F0FF000002112B
:1011F00008B5024B1B689847002008BD3C0400203E
:10120000034B044A1860937843F0020393707047CD
:101210003C0400200400002008B50649064821F0DF
:101220000701C1F1005202F5802203F037FA0020D5
:1012300008BD00BFD71B0020400400200B4B01223B
:10124000C3F840254FF080434FF08051C3F8782514
:10125000D1F83001082805D1D1F83411022908BF8E
:10126000C3F838260122C3F88025704700E001400A
:1012700048B1054B054A1B68B3FBF2F35843044BD6
:1012800043F00103184770471C01002040420F0043
:10129000D060000008B5054A054B136010463F2397
:1012A000536000F069FF002008BD00BF4C0400201F
:1012B000FFFF0F00084B70B5C31A0D4607499B107E
:1012C000044659430648402203F05BFB2B46014687
:1012D0002046BDE87040184768040020B76DDBB6B3
:1012E000585E000073B50C4C0C4A4023041B00935D
:1012F0000D460B460A49A41061430646094803F00F
:101300006BFB014628B130462B4602B0BDE8704069
:10131000184702B070BD00BF68040020474A0000B3
:10132000B76DDBB6585E00000022F8B50121054616
:101330001046FFF7E5FC104800F046FF0446B8B938
:1013400000F062FF2F690D49384603F046FA031E8C
:1013500009DB01263E642D69084905F11C0003F0F4
:101360003CFA031E02DA1C462046F8BDEE64FBE799
:101370006FF00404F8E700BFB1140000246100001E
:1013800010B5002286B00123CDE9022304ABCDE9DC
:1013900004336C46074A6B46CDE9004403F04CFB2E
:1013A00028B94FF480420023684601F033FE06B0AE
:1013B00010BD00BF594A000010B5EFF3118420237F
:1013C00083F31288BFF36F8F074A136823F002017B
:1013D000DB07116002D4012003F0E7FD84F31188DC
:1013E000BFF36F8F10BD00BFB804002030B4104BA6
:1013F0000C2202FB003301460020D3E90E52986311
:10140000EFF31180202484F31288BFF36F8F1C6CDC
:1014100004F0C00444F002041C6480F31188BFF39C
:101420006F8F1DB12B46034830BC184730BC704746
:1014300068040020585E000010B4EFF311802022F1
:1014400082F31288BFF36F8F17490B6843F00204D1
:1014500013F001030C601AD04FF08043D3F80C1442
:10146000D3F80C3413F0010311D0EFF3118182F3A0
:101470001288BFF36F8F0D4A136C03F0C00343F063
:101480000203136481F31188BFF36F8F012380F38C
:101490001188BFF36F8F1BB110BC0020FFF7A6BFF0
:1014A00010BC012003F079BDB804002068040020BE
:1014B00010B1012804D07047034B1B6C5B0701D1AE
:1014C000FFF794BF704700BF68040020F8B52A49B1
:1014D000BFF35B8F0546012251E8003F41E8002041
:1014E0000028F9D1BFF35B8F33B9244924484B60FE
:1014F000CB608A6003F084F96B1E012B3BD8012D71
:1015000007D14FF08043D3F81C3403F00303012BC1
:1015100031D004F0B5F9A0B91A4B1E784FF08044D1
:101520000223C4F808330127D4F81824D4F8183457
:10153000D20308D4002EF7D00021212004F065FA50
:10154000F2E70026EAE703F00303012B0ED0D4F8FC
:1015500018354BB9D4F8042132B1C4F80431D4F8A9
:101560000431C4F81875A760012DE3D14FF0804312
:101570000222C3F80423F8BD6404002054040020B0
:10158000840400204709002008B5074804F043F907
:1015900038B10648FFF734FE0448FEF7A7FF0020E5
:1015A00008BD6FF01200FBE7AC5E0000B115000053
:1015B0000A2838B5074D044604D1AB680D215B6895
:1015C00028469847AB6803485B68E1B298472046D5
:1015D00038BD00BFAC5E00002DE9F043476840F223
:1015E0000636D0063B7C87B002EA060654BFC2F33B
:1015F000401C4FF0030C01F01F05B6F5837F144625
:1016000045EA43158DF803C044D00DD8062E16D0F8
:1016100005D8A6B1022E3FD06FF0150037E0B6F521
:10162000807FF9D101260AE040F20222964235D0AD
:10163000B6F5407F34D0B6F5007FEDD10226220307
:1016400030D57A6801238B40C2F80835B868A0BB52
:1016500005F01F036D092DD0012D77D13E4A02EB15
:101660008302C4F30043D2F8001783F00103C4F3EC
:10167000404444EA430421F4E16144EA8C0421F04B
:10168000070144EA06230B43C2F80037002007B0E5
:10169000BDE8F0830726D2E70426D0E70526CEE78B
:1016A0000326CCE7630341BF01237A688B40C2F86D
:1016B0000C35CBE74FF0A042D1E70DF102022946ED
:1016C00003F0E3FE14F4403F80460CD1B86829468D
:1016D00003F010FFB8F1000FD8D19DF80210B868E0
:1016E00000F028FFD2E74FF0000901ABCDE90199E6
:1016F000CDE90439CDF80C90B86803AA294603F067
:1017000099FD4845C2DB14F4003314D0C4F30044FF
:101710009DF803308DF80E3084F001048DF80C60D4
:101720008DF80D40B8684B4603AA294603F035FEF4
:101730000028CFDAAAE7CDE904330DF103030393C0
:10174000B86803AA294603F075FDF1E703F5E073D5
:1017500050F82330FFDE00BF00030050420970B58F
:10176000034602D0012A17D070BD0D4E3269516870
:101770000029F9D003F01F0301250C689D400029C2
:10178000F2D08A682A4002D04B68304698472CB184
:10179000236821461C46F2E7024EE7E72346F8E7B6
:1017A000905E0000745E000038B54568A86890B18E
:1017B00003F09AFE014670B9A86803F079FE04466A
:1017C00058B902460649A86803F05CFE2246052186
:1017D0000620FFF795FA002038BD6FF00400FBE704
:1017E0005D170000F0B544681646A068227C01F041
:1017F0001F0587B045EA421500286DD0B6F5001FD9
:1018000004D1294603F0C9FE002056E06268607CDE
:10181000C2F8240501AA0020B6F5800F019050609F
:1018200037D1B3F1007F14BF052304238DF80430B2
:101830000023CDE904230393E36823FA01F111F0B7
:1018400001010DF103073AD1B6F1A07F37D105F0C0
:101850001F036A0903F5E07326D0012A3FD1214A0C
:1018600052F82330DB072AD4A0683A46294603F011
:101870000CFE16301BD00297A06803AA294603F07D
:10188000D9FC002819DBA0680122294603F034FEA8
:10189000BAE7B3F1C06F05D0B3F1007F14BF0123E5
:1018A0000223C3E70323C1E74FF0A042D8E7A068B3
:1018B000394600F045FE0028DDDA07B0F0BDA0682B
:1018C0003A46294603F0E1FD0028D5D19DF80310E2
:1018D000A06800F02FFECFE76FF08500EDE751F82C
:1018E0002330FFDE00030050036803F01F025B0992
:1018F000026004D0012B034818BF002070474FF04E
:10190000A0407047000300502DE9F04F00EB810923
:10191000654985B01546834640F2FF1AD94503D183
:10192000002005B0BDE8F08FDBF80020C2F3C72827
:1019300018F00808C2F3C320C2F3080440F0B180D5
:101940005A4B544508BF4FF0FF34B2F10C5F1E5C98
:101950004FEA126015D2222815D8DFE800F01727C9
:101960002B382E3438141414143E48141414141440
:10197000141414144B86898C1414148F9396999C08
:101980009F004E2826D06FF08500CAE7C5F80C45A9
:10199000621C67D003A80394FFF7A6FF039A0127F0
:1019A00007FA02F2C0F80825384639E0C5F81445B0
:1019B000002718E0C5F80845EAE7C5F808450027FC
:1019C000601C22D14EE0C5F80C450127F8E7C5F8A8
:1019D0001045EDE7C5F81445DAE7C5F80845002ECF
:1019E000E6D100270626631C3CD0002018E0C5F88D
:1019F0000C45F4E7C5F86045BBF80220671C02F00F
:101A000001022FD0002AC5D1012703A80394FFF7B4
:101A10006BFF039A8446012000FA02F2CCF80C25F1
:101A2000DBF80020019202F4004CBCF1000F08BF6B
:101A3000804603A818BF01270394FFF755FF039CB6
:101A4000019A00EB8400C2F3412CD0F80047320227
:101A500042EA8C0242EA08020C40224342EA470270
:101A6000C0F800270BF1040B58E7C5F86445C3E73D
:101A7000C5F86845C0E7C5F86C45BDE7C5F824451D
:101A80000127B0E7C5F8284582E7C5F83045F7E7F4
:101A9000C5F83445F4E7C5F83845F1E7C5F83C45E5
:101AA00076E76FF015003CE7F0F8FCFFEA6A00000B
:101AB0002DE9F041044647680D4603F0E1FE88B188
:101AC0004FF02008EFF31186314688F31288BFF3F8
:101AD0006F8F606803F04CF950BB86F31188BFF339
:101AE0006F8FEFE71F4B1B78002BE9D04FF02008DA
:101AF0006426606803F03CF970B9012003F0FCF93A
:101B0000013EF6D10021212003F07FFFF0E786F3AC
:101B10001188BFF36F8FF5E7EFF31186314688F335
:101B20001288BFF36F8F606803F022F90028EED0AF
:101B3000BB691D706368BA691B680020C3F844253F
:101B40000122C3F84825C3F82001D3F82041C3F887
:101B50005801D3F858019A6081F31188BFF36F8F51
:101B6000BDE8F0814709002070B5012383400F4A8A
:101B7000BFF35B8FDC4352E8001F01EA040542E833
:101B80000056002EF7D1BFF35B8F4FF480328240B6
:101B90000748C0F80823BFF35F8FBFF36F8F03EAD6
:101BA0000100003818BF012070BD00BFE404002010
:101BB0000010014011B3BFF35B8F0123104A834033
:101BC00052E800CF4CEA030C42E800C10029F7D1EB
:101BD000BFF35B8F0B4A4FF480338340C2F804336A
:101BE000094BBFF35B8F1B68BFF35B8FC340DB0701
:101BF00042BF064B4FF40032C3F80021704700BFCC
:101C0000E404002000100140E004002000E100E0B6
:101C10000D4B1868010A0006BFF35F8F0B4BD3F81A
:101C20000435181841F10001B3F5801F0AD2084BA2
:101C3000D3E90023904271EB030303D210F18070CB
:101C400041F10001704700BFEC040020001001408A
:101C5000900100202DE9F04F85B016461F469DF8F3
:101C600040A00446FFF780FF0190FFF7D1FFB0428C
:101C700071EB07035ED23E4B301A67EB01019842CD
:101C800071F1000109D36FF0150520460199FFF7A6
:101C900091FF284605B0BDE8F08F364B03EB0413E7
:101CA000D3E902239F4208BF964254D032494FF4F1
:101CB000803804F1500508FA04F8AD00C1F84883F3
:101CC0002046ADB203F0FCF826F07F4B05F18045CD
:101CD00004F5A87305F58835DC464FF00309029337
:101CE000029A2CF07F4341F82230C1F84483D1F8A6
:101CF0000435224A6FF00200C01A604420F07F4091
:101D0000904228D9286868B1D1F804350393A3EB31
:101D10000B0020F07F40B0F5000F1CD9204603F0E7
:101D2000CFF8039BBAF1000FADD109EB030C09F119
:101D30000109D5E7BAF1000FA5D10123104ABFF37D
:101D40005B8FA34052E8000F184342E800010029CE
:101D5000F8D1BFF35B8F07490E98230101EB041202
:101D6000C8500F9B5360C2E9026700258DE700BF92
:101D7000010080007801002000100140FDFF7F007D
:101D8000E00400207FB51C4C1C4BC4F80833C4F899
:101D900048331B4B00254FF0FF304FF0FF31C4F8A4
:101DA0000855C3E902014FF48033C4F80433154BDE
:101DB00002264FF400320121C4F804631120C3F855
:101DC00080212A46FEF79CFF1120FEF77DFF0E4A78
:101DD0000123A360236013600C4B0D4A0093CDE9EF
:101DE000015500232846FFF735FF3046FFF76EFB0D
:101DF000284604B070BD00BF0010014003000F0072
:101E00007801002000E100E0E4040020151E00003D
:101E1000FFFF7F00D0B522F07F44FFF7F9FE134AA1
:101E2000D2E90031C01AC31841F10001C2E9003102
:101E30000F4B00221A60A4F50013B3F5400F09D22E
:101E40000C4B1B681A0A1B061E190B4B42F10007AC
:101E5000C3E90067EFF31181202383F31288BFF3F6
:101E60006F8FBDE8D04001F0CBBD00BF88010020DE
:101E7000E8040020EC040020900100202DE9F74345
:101E80002E4CD4F8043399070BD5D4F8043143B160
:101E90002B4A0023C4F80431D4F804311368013309
:101EA0001360D4F80433DA0343D5BFF35B8F254BBB
:101EB00053E8002F22F0010143E800100028F7D179
:101EC000BFF35B8FD30702D4D4F840318BB3002526
:101ED000C4F84051D4F84031FFF79AFEEFF3118275
:101EE000202383F31288BFF36F8F174BD3E9026768
:101EF000B042B94120D34FF0FF304FF0FF31C3E97A
:101F00000201D3E900981D604FF48033C4F84833D0
:101F1000C4F84051D4F8403182F31188BFF36F8F79
:101F2000B9F1000F05D0CDF8008032463B460020C5
:101F3000C84703B0BDE8F083A946EDE700100140B3
:101F4000EC040020E00400207801002030B5104BA4
:101F50001B680021181841EB01040E4BB0F5000F6F
:101F600074F10005D3E9002385B00BD2821844EB4D
:101F70000303CDE90111084900910020FFF76AFE33
:101F800005B030BD0548121843F10003F1E700BF6A
:101F9000E804002088010020151E0000FFFF7F00DC
:101FA00008B5FFF735FE034B1B68C01A024B1860DB
:101FB00008BD00BF88010020E8040020024AD2F8D2
:101FC0000034002BFBD0704700E0014010B54FF00B
:101FD0008053D3F83021082A4ED14FF0804200219F
:101FE000C2F80C11C2F81011C2F8381502F54042BF
:101FF000D3F80414C2F82015D3F80814C2F8241535
:10200000D3F80C14C2F82815D3F81014C2F82C1504
:10201000D3F81414C2F83015D3F81814C2F83415D4
:10202000D3F81C14C2F84015D3F82014C2F8441594
:10203000D3F82414C2F84815D3F82814C2F84C1564
:10204000D3F82C14C2F85015D3F83014C2F8541534
:10205000D3F83414C2F86015D3F83814C2F86415F4
:10206000D3F83C14C2F86815D3F84014C2F86C15C4
:10207000D3F84434C2F8703502F02EFF18B1374B54
:10208000374AC3F88C2602F027FF18B1354BFB22E4
:10209000C3F8182502F020FF58B14FF080424FF0EE
:1020A0008051D2F8E43ED1F8581261F30303C2F82C
:1020B000E43E02F011FF20B12B4B4FF40072C3F845
:1020C00040264FF08053D3F83031082B17D14FF012
:1020D0008043D3F80024D20744BF6FF00102C3F855
:1020E00000244FF08053D3F83431042B81BF4FF0DC
:1020F0001023D3F808224FF08043C3F858254FF03F
:102100001023D3F80022002A03DBD3F80432002B7B
:1021100022DA164901234FF01020C1F804351224A9
:10212000FFF74CFFC0F80042FFF748FFC0F8044239
:10213000FFF744FF0023C1F80435FFF73FFFBFF36B
:102140004F8F0B490B4BCA6802F4E0621343CB601C
:10215000BFF34F8F00BFFDE710BD00BF0050004030
:102160004881030000F000400090024000E0014080
:1021700000ED00E00400FA05014B1860704700BF55
:10218000F004002010B5054B1868144602F0B6FEA6
:102190000028A4BF2070002010BD00BFF004002064
:1021A000024A01238340C2F80435704700F0014021
:1021B000014B00201B681847F4040020014B1B68EA
:1021C000184700BFF404002010B50C4C237993B9D4
:1021D000012323710A4B2060002818BF184600F025
:1021E00049F850B923680748002BBDE8104008BFE4
:1021F000184600F08FB86FF0770010BDF40400208F
:10220000B1210000BD21000008B5064B1B683BB1A1
:102210000020FEF767FD18B9BDE80840FEF754BD81
:1022200008BD00BFF404002038B54FF080440123FE
:10223000C4F8083363600023C4F80031D4F80031D7
:1022400042F21075D4F80C24D4F80C34D20307D51C
:10225000DB0705D5012002F04FFE013DF2D138BD6C
:1022600002F0B2FE0028FAD0014B00225A71F6E7C4
:10227000FC04002010B508490C794CB90123086012
:102280000B7102F0A1FE08B9002010BD4C71FBE7F4
:102290006FF07700F9E700BFFC0400204FF08043A7
:1022A0000022C3F80021D3F80021094901221A6055
:1022B000096811B1C3F804237047D3F80021002A3C
:1022C000FBD00022C3F80021D3F80031704700BFD3
:1022D000FC04002010B54FF08043D3F80423D2074C
:1022E00015D5D3F8002192B10022C3F800210121B5
:1022F000D3F80021C3F8081302F066FE044B10B1B6
:102300005A7922B95971BDE810401B68184710BDB1
:10231000FC040020074A137943B9012110601171B0
:102320004FF080421846C2F8183570476FF07700BA
:10233000704700BF0405002010B54FF080431D4CCE
:10234000D3F81814D3F8182411F4803F1AD002F0EF
:102350000302012A01D092B900224FF08043C3F852
:1023600018250022C3F80421D3F8042101229A6021
:1023700022688AB9D3F80421002AFBD014E002F0C5
:1023800034FEE9E7D3F81424D107E5D5D3F81C24AB
:102390009207F4D422681AB10222C3F8042310BDB4
:1023A000D3F80421002AFBD00022C3F80421D3F87B
:1023B0000431F4E704050020F8B54FF08043194FCD
:1023C000D3F80443012504F01A04002604B9F8BD2B
:1023D000B4FA84F0C0F11F00830003F580739BB250
:1023E00003F1804305FA00F2196892B224EA02046C
:1023F0000029EBD01E601B684FF08043022AC3F80F
:1024000008230BD1D3F81814D3F81814890705D171
:10241000C3F81855C3F804239D60D7E73B68C0B2E2
:102420009847D3E704050020036803F01F025B0907
:10243000026004D0012B034818BF002070474FF002
:10244000A040704700030050034A430900F01F00FA
:10245000D35C1844C0B27047F26A0000024611F023
:10246000010030B515D18B07C1F3400022D51249C8
:10247000D1F8200550604FF08052C1F82005D2F805
:102480003021082A08BFD1F82025003818BF0120C4
:1024900010E04FF0A0444FF08055D4F82035136081
:1024A000C4F82035D5F83051082D08BFD4F82045A0
:1024B000002BD8D030BD00BF00030050F7B5044654
:1024C0000846FFF7C1FF04EB40060D46B38ADB0761
:1024D0002AD5204602F08CFE2946204602F0F8FD5F
:1024E00050B1204602F00AFE276807EB8000002367
:1024F000C0F81035C0F810352946204602F027FEF6
:102500000021B18201A80195FFF78EFF019B00EB2E
:102510008300074BD0F80027134043F00203C0F8B4
:102520000037084603B0F0BD6FF01500FAE700BFB2
:10253000F0F8FCFF014802F0FFBC00BF20010020C2
:1025400010B504480C4602F0D9FC0028A4BF207046
:10255000002010BD200100202DE9F04F074689B072
:1025600057F8049BD9F80413C9B28346082241F0F6
:102570000041484602F014FE051E2FDA0023032115
:1025800006A8CDE90633FFF769FF634B01930DF110
:1025900018084FF0000A019A604912F8013B0192B5
:1025A000DA0803F007038A5C22FA03F3DB071CD482
:1025B0000AF10103022B08F104084FF0010AEAD1E5
:1025C0004FF000410022484602F0EAFD032106A830
:1025D000FFF744FF0028D8D125F000450124002D45
:1025E00040F0848009B0BDE8F08F4D4B5344029316
:1025F000D8F80060002EDBD0029B96FAA6F61C7875
:10260000B6FA86F646EA44142046FFF71DFF0BEBA8
:102610004000F208818A18F802000594C1F3820391
:102620000393009306F00706012303FA06F620EA57
:10263000060008F8020005A8FFF7F6FE059A039BBE
:1026400002F5E07211F0100F50F82260C6F3014657
:1026500033D0009A3846214602F05AFD05A8059469
:10266000FFF7E2FE059B03F5E073F6B250F8233066
:10267000C3F301439E4207D10021204602F019FD19
:102680003146204602F015FD05A80594FFF7CCFE63
:10269000059B012202FA03F3C0F820354FF0805366
:1026A000D3F83031082B01BFD0F82035D0F82035D1
:1026B000D0F82035D0F820359AE7022E14BF022139
:1026C00003212046039302F0F4FC039B032B03D069
:1026D000022E07D1012BD7D1009A2146384602F0AD
:1026E00017FDD1E7032ECFD1022BF4E795FAA5F31E
:1026F000B3FA83F304FA03F225EA020503F5A272A2
:102700000BEB430359F82220B3F87C10C2F30142CB
:10271000384602F0FDFC62E7026B00000C6200002C
:10272000026B000013B5394B01930023C0F804314C
:10273000D0F80421C0F82431D0F82421C0F81C318D
:10274000D0F81C21C0F80831D0F80821C0F80032B8
:102750004B6381F82F300123036291F82D209A42B8
:1027600018BF83604B6B8A6A934204460ED24A6A52
:10277000D35CC0F81C350B6803B340F286238B6032
:102780008B68C4F80433002002B010BD91F82C30DF
:1027900013B10123C361EEE70B6A13F0400F4FF052
:1027A000010316BFC361436181F82D30E3E7204682
:1027B00002F0F5FE28B1019B013B0193019B002B28
:1027C000F5DC91F82F0058B9019B002BDCDC0023CD
:1027D000C4F800350523C4F800356FF08B00D3E74B
:1027E000D4F8C434C4F8C43463B19A075ABF03F0B0
:1027F00001008C386FF0040013F0040F18BF6FF065
:102800000A00E1E76FF08B00DEE700BFA086010061
:1028100013B5314B01930023C0F80431D0F80421E3
:10282000C0F82431D0F82421C0F81C31D0F81C2184
:10283000C0F80831D0F808214B6381F82F308B6A3B
:10284000012B044617D10B6A580614D40223C4F88E
:1028500000320123236291F82D20022A18BF236041
:102860000B688BB140F286238B608B68C4F804330D
:10287000002002B010BD0123E9E7204602F08FFEE0
:1028800028B1019B013B0193019B002BF5DC91F8E2
:102890002F0058B9019B002BEBDC0023C4F8003556
:1028A0000523C4F800356FF08B00E2E7D4F8C43498
:1028B000C4F8C43463B19A075ABF03F001008C38DE
:1028C0006FF0040013F0040F18BF6FF00A00E1E787
:1028D0006FF08B00DEE700BFA086010038B504462C
:1028E00090F83200002845D1E060C4E9012384F863
:1028F000310084F8350084F8340081B34B7B84F8D0
:102900003C308A7B84F83D2032BB0B6803F01F000B
:102910005B0929D0012B30D11D4A02EB80021D48F2
:10292000D2F80037034043F4C16343F00403C2F814
:1029300000374B6803F01F055B0918D0012B21D12C
:10294000134A02EB8502D2F80037034043F4C16317
:1029500043F00403C2F80037204602F0B8FE01231A
:1029600084F83230002038BD4FF0A042D5E74FF058
:10297000A042E6E76FF07700F5E700F5E07052F867
:102980002030FFDE05F5E075002353F82530F8E729
:1029900000030050F0F8FCFF0368094AC3F808235D
:1029A000D3F8002222F00302C3F800220022C3F869
:1029B0000025012380F8323080F83420704700BFB2
:1029C000864204002DE9F04190F831308046012B19
:1029D00058F804EB04460D46164605D10B78012B3A
:1029E00007D16FF076000FE0022B02D10B78012B9C
:1029F000F7D11F4BCEF8083394F8343033B1E36885
:102A0000CEF804336FF00F00BDE8F081C6F3800309
:102A100083F00103DBB284F834306662AC46BCE874
:102A20000F0004F110070FC7DCF800303B606B6843
:102A3000E362EB68A3626B78CEF888352B78012BC4
:102A400010D06BB9C6F3401684F83060414670462A
:102A5000FFF768FE6368002BD6D184F83430D3E7E3
:102A60000126F1E741467046FFF7D2FEF2E700BFCC
:102A700086420400036803F01F025B09026004D071
:102A8000012B034818BF002070474FF0A04070474B
:102A900000030050F7B5064602F094FE084602F027
:102AA00091FE01A80196FFF7E5FF019B00EB830073
:102AB0000C46D0F800372D49019440F20D650B40CB
:102AC0002B43C0F8003701A8FFF7D4FF019B00EBB0
:102AD00083000127D0F800370B402B43C0F80037A4
:102AE000042002F009FA092501A80194FFF7C2FFAA
:102AF000019AD0F81035D340DB0715D401A8019610
:102B0000FFF7B8FF019B07FA03F3C0F80C35042068
:102B100002F0F2F9304602F055FE013D042002F0C9
:102B2000EBF915F0FF05DFD101A80194FFF7A2FF33
:102B3000019A01239340C0F80C35042002F0DCF91F
:102B4000204602F03FFE042002F0D6F901A80194CD
:102B5000FFF790FF019AD0F81035D34013F0010F22
:102B60000CBF6FF08B00002003B0F0BDF0F8FCFF4D
:102B700038B5EFF31185202383F31288BFF36F8FED
:102B8000064B9C6802F05AFE85F31188BFF36F8FE5
:102B90002046BDE83840FEF75BB900BF0C050020B9
:102BA00038B50A4B53F82040013053F82050A54265
:102BB00000D838BD606830B1037EDB0701D402F075
:102BC00012FE0834F3E723689847FAE71062000022
:102BD00070B52D4B2D4C2E4D012286B01A70AC4293
:102BE0001CD30320FFF7DCFF0420FFF7D9FF294C9B
:102BF000294D2646AE4204F1300413D300F022FDE5
:102C0000244CAC422AD300F031FDFDF779FA234A77
:102C1000938923F00103938106B070BD54F8043BFF
:102C20009847DCE754F80C3C059354F8103C0493A7
:102C300054F8143C039354F8183C029354F81C3C89
:102C4000019354F8203C009354E90A2354E90C0101
:102C500000F006FA54F8303C5E65CAE7D4E90A236E
:102C6000B3F1FF3F08BFB2F1FF3F05D052EA0301C5
:102C7000206803D100F050FA3034C2E70849183018
:102C800000F0D6FDF8E700BF4709002064600000AF
:102C9000686000006860000068600000200200209A
:102CA0009359000070B5164E164D1749882386B00B
:102CB00003FB006601220023CDE904230F22CDE9A6
:102CC00002320193142303FB005504464FF4C070F5
:102CD00000FB04110D4B00954FF4A072304600F03C
:102CE000BFF9337C0A4AEE6023F0040333744FF4D7
:102CF000046304FB033313442C746B6006B070BD93
:102D0000980100200C050020C0110020435800004D
:102D1000800900207FB50020FFF742FF2D4B83F391
:102D200008882D4C2D4D636943F400736361E023E3
:102D300084F822300023E37723766376A37684F841
:102D40002030626A42F4E022626284F82330FDF7A8
:102D500077FFFEF767F84FF0FF33A362E362FEF7F9
:102D600085F9FEF7E1F81E481E4C00F0C9F9FEF7A0
:102D700065FAAC422AD30120FFF712FF0220FFF7C9
:102D80000FFF00F057FC184B184C5C61184B059373
:102D900000250123174900954FF48062CDE90353C4
:102DA000CDE90155144B204600F05AF9237C064624
:102DB00023F004032046237402F0C4FD2846FFF7E5
:102DC00071FF0D4A31462046FEF70EF854F8043BD9
:102DD0009847CEE7C011002000ED00E064600000DD
:102DE000A8020020646000000C05002020020020E2
:102DF0003467000040130020D12B0000F7B50E46C9
:102E000004469DF82010EFF31187202080F31288EC
:102E1000BFF36F8F256AE068854245D22568AC42D2
:102E200019D0C5B1284602F017FD05F1180000F0D1
:102E30008FFDA2686869314602F060FF0023C5F883
:102E40008430284602F08DFD04F10800394602F076
:102E5000D9FD002036E0A268D9B1E069314602F020
:102E60004DFFE369A26813446269E361934201D1B3
:102E70002369E361236A01332362102104F12400F2
:102E800002F0D7FE0028DFD187F31188BFF36F8FE0
:102E900018E0A0692369984208BF6069801AA061A0
:102EA000314602F02BFFE5E752EA03010CD0084956
:102EB000896804F108004E61CDE9002339462246B5
:102EC00000F04AFB03B0F0BD6FF02200DCE700BF6A
:102ED0000C050020F7B504460846EFF311862021C3
:102EE00081F31288BFF36F8F216A00293BD0A2685B
:102EF000A16902F003FFA369A2682568134462690F
:102F0000A361934204BF2369A361236AAC4203F126
:102F1000FF33236236D02846002D34D002F09CFCCB
:102F200005F1180000F014FD6969A268E06902F07B
:102F3000E5FEE369A26813446269E361934204BF5A
:102F40002369E361236A0027013323622846C5F819
:102F5000847002F006FD04F10800314602F052FDD3
:102F6000384603B0F0BD52EA030111D00A4989681E
:102F70004861CDE900233146224604F1080000F003
:102F8000EBFAEEE7002086F31188BFF36F8FE8E7D6
:102F90006FF02200F7E700BF0C05002070B5EFF3DB
:102FA0001186202383F31288BFF36F8F0468A04239
:102FB0001CD0DCB1D4E9003213605A60237C0025B8
:102FC00023F00203C4E900552374A56004F118003E
:102FD00000F0BEFCC4F884506561204602F0C1FCDC
:102FE00031460B48BDE8704002F00CBDD0E902321A
:102FF0009A4218BF013383600221103002F019FE9B
:103000000028EDD186F31188BFF36F8F70BD00BF2C
:103010004809002013B5EFF31181202484F31288AE
:10302000BFF36F8F846844B1013C846081F31188E1
:10303000BFF36F8F002002B010BD52EA030406D127
:1030400081F31188BFF36F8F6FF00F00F3E7CDE9C5
:1030500000230246014800F07FFAECE7480900200F
:103060002DE9F043073285B01F4622F0070200F138
:103070005803C0E916337F32109B838100250E462A
:1030800022F03F020F9981730423C0E906550446DC
:1030900085600374C573002100203F2AC4E908013C
:1030A00006F14009A2F1400805D885F31188BFF365
:1030B0006F8F184602DFB51829462046FDF7A4FB9E
:1030C00007300E9B20F007006067C4E91B9802934D
:1030D0000D9B01932D1A0C9B00932A463B463146CB
:1030E0002046FDF74FFE00236365044B9B6803B148
:1030F0009B6FA367284605B0BDE8F0830C05002050
:103100000123037483810023C0E91B338367014BD0
:10311000986070470C05002038B50446EFF3118520
:10312000202383F31288BFF36F8F037C5B070FD5D7
:10313000183000F00DFC237C23F004032046237498
:1031400002F00FFC29460548BDE8384002F05ABCA1
:1031500085F31188BFF36F8F38BD00BF4809002089
:10316000F0B587B000250595109D04950F9D03953A
:103170000E9D0295DDE912760D9D01950C9D009541
:103180000446FFF76DFFB6F1FF3F08BFB7F1FF3F01
:1031900005D056EA070305D12046FFF7BDFF2046BC
:1031A00007B0F0BD3A46334604F11800014900F07B
:1031B0003FFBF4E7935900000A4A93686FF00A0155
:1031C000C3F884100849C3F880004B6843F080536B
:1031D0004B60002383F31188BFF36F8F9368D3F89C
:1031E000840070470C05002000ED00E038B590F930
:1031F0001020037C002A014604DA03F07F030374E5
:1032000002F068FB0D4D2A46AB6852F8184F944205
:1032100000D004B9EC688B4207D01A7CD20604D1E6
:10322000DA897F2A01D9A2692AB1A34202D02046B5
:1032300002F004FC23466B6138BD00BF0C05002082
:1032400070B590F91020037C002A2FDBD9062DD110
:103250001A4C63F07F032246037452F8183FE16969
:10326000934207D1C0E900210860E0610FE0994274
:10327000F8D01B68002BF5D093F90E6090F90E5032
:10328000AE42F4DD5968C0E9003108605860A569B4
:10329000954200D005B9E568A3681A7CD20606D12C
:1032A000DA897F2A03D9AA690AB9636170BDAB4282
:1032B00002D0284602F0C2FB6561F7E70C0500204A
:1032C000034648B9EFF3058232B9064A516992685C
:1032D000914201D0FFF770BF83F31188BFF36F8F66
:1032E000704700BF0C05002038B5184CA168E06994
:1032F0000B68814214BF1A46002249680B6059606E
:10330000A368E1692AB9124AC3E900210B60E361AD
:103310000AE092F90E5093F90E00854212DD5168D1
:10332000C3E900210B605360A569094B9D4200D0A1
:1033300005B9E568A3689D4202D0284602F07EFBED
:10334000656138BD8A42DED01268DBE70C050020DB
:10335000240500202DE9F843002A027C0CBF4FF021
:1033600010084FF0080818EA020F04460D4662D113
:1033700048EA0203D2090CD10374B8F1080F7BD1DB
:10338000A36813B1204602F0ADFA04F11806202715
:103390000FE003F07F03037402F09CFAEDE785F37E
:1033A0001188BFF36F8FEFF3118587F31288BFF396
:1033B0006F8F304600F0CCFA0B30F0D0A66D04F1E0
:1033C0005807B74211D04FF0000976B1304602F0ED
:1033D00089FAC6F8849006F1180000F0B9FA304670
:1033E000FFF72EFFA66DB742EFD1274B9B689C429B
:1033F00042D1EFF30587003F18BF0127DFF888901F
:103400004B4653F8186F9E4200D00EB9D9F80C60A5
:10341000D9F80830B34202D0304602F00FFBB8F1C1
:10342000100FC9F8146006D0204601F075FA17B1E4
:103430001648FFF765FE144B9B68A3421ED1EFF3BD
:103440000583DBB9A289D20711D585F31188BFF3B3
:103450006F8F83F31188BFF36F8F0423184602DF49
:10346000EFF31185202383F31288BFF36F8F284673
:10347000BDE8F843FFF7A0BE0027BFE785F311883A
:10348000BFF36F8FBDE8F8830C050020A802002071
:1034900070B50F4D2B46064653F8184F9C4200D08E
:1034A00004B9EC68AB681A7CD20604D1DA897F2AA9
:1034B00001D9A2692AB1A34202D0204602F0BEFA85
:1034C00023466B613046BDE87040FFF7F9BE00BF90
:1034D0000C05002070B5EFF31186202383F31288CA
:1034E000BFF36F8F1A4CA168E0690B68814214BF6B
:1034F0001A46002249680B605960A368E1692AB93D
:10350000144AC3E900210B60E3610AE092F90E500E
:1035100093F90E00854216DD5168C3E900210B6066
:103520005360A5690B4B9D4200D005B9E568A368BF
:103530009D4202D0284602F081FA65613046BDE81E
:103540007040FFF739BE8A42DAD01268D7E700BF71
:103550000C05002024050020F8B5124B0C4611463E
:10356000114A98681060DDE90676EFF31182202297
:1035700082F31288BFF36F8F9D68284602F0BCF972
:10358000B6F1FF3F08BFB7F1FF3F06D007493A4603
:10359000334605F1180000F04BF92046BDE8F8402D
:1035A000FFF70ABE0C0500202C05002093590000EF
:1035B000F8B550EA010305460C4603D102F088F93C
:1035C0000020F8BDEFF31187202383F31288BFF3A7
:1035D0006F8F144E144BB068186002F0C4F9B068D5
:1035E00012492A462346183000F022F9B3681A7CA3
:1035F000C3F8807042F004021A746FF00A02C3F834
:1036000084200B4A536843F08053536004460023E0
:1036100083F31188BFF36F8F02F017FA201A20EAA4
:10362000E070CEE70C0500202C0500209359000027
:1036300000ED00E0024B03F11802C3E906227047D7
:103640000C050020EFF31181202383F31288BFF3D0
:103650006F8F054B9A68D37B013BD37381F311883D
:10366000BFF36F8F704700BF0C050020EFF3118090
:10367000202383F31288BFF36F8F034B9A68D37BA9
:103680000133D373FFF704BF0C050020014B98688A
:10369000704700BF0C050020D3B5DDE90667089C24
:1036A000CDE90067FFF758FF1CB1034B9B685B69CE
:1036B000236002B0D0BD00BF0C050020027C12F0D8
:1036C0001F02034610D10A4988420DD009490868F3
:1036D00068B1D9897F2909D893F90E20064B1B6858
:1036E0009A42B8BF002070470020704710467047CC
:1036F000980100202401002030050020044BC01A4E
:10370000044BC0105843044B01221A54704700BFA9
:1037100030030020ABAAAAAA48090020F8B50B4B39
:103720000B4D1E7C0B4F182303FB06550446284601
:1037300000F00EF934B1BB5D0749E21AD3172846F1
:1037400000F076F80023BB55F8BD00BF0C05002043
:103750003003002048090020FD360000F8B5EFF3E3
:103760001187202383F31288BFF36F8F124E134B00
:10377000B5681868A84206D102F060F987F311888D
:10378000BFF36F8FF8BD00221A60337C0C4AD35C04
:10379000002BF3D02846FFF791FF04460028EDD018
:1037A0002B7CDB06EAD1FFF79FFD7369AB42E5D1C5
:1037B0002046FFF7B3FFE1E70C0500202C050020B1
:1037C00048090020024B1868984208BF0020704743
:1037D0002801002008B50246FFF7F4FF6FF0004112
:1037E000C8B18A4215D2D0E90230B0F1FF3F08BF1C
:1037F000B3F1FF3F03D16FF00040801A08BD8B4248
:1038000070F1000001DB0548F7E79A4201D2981AEF
:10381000F4E70020F2E78A42EDD3EFE7FEFFFF7FF7
:10382000024B186808B1FEF7BBBB7047300100209F
:10383000B3F1FF3F08BFB2F1FF3F2DE9F84F044657
:103840009A461546984679D00161EFF311872023F7
:1038500083F31288BFF36F8FBAF1000FDFF8E490A3
:1038600023DBFFF7DDFF384B1A68003A18BF01224F
:1038700045194AF100035219D9E9005143F10003F7
:10388000551943EB010806460121DFF8C090C4E951
:103890000223FFF797FFD9F804A0D0B9C4E9009A32
:1038A000CAF80040C9F8044025E0D9E900136FF0D8
:1038B0000102521A4FF0FF3161EB0303521B63EB1D
:1038C0000A03012A73F10001BCBF01220023002179
:1038D000DBE7D0E9022ED4E9023C93427CEB0E0BED
:1038E00023DAD21A6EEB0C03C0E902234368C4E961
:1038F00000031C604460FFF765FF84420DD1124B4A
:103900001B68013309D111B9FFF78AFF064630461B
:10391000FFF760FF0021FEF719FB87F31188BFF363
:103920006F8F28464146BDE8F88F9B1A6CEB0E025C
:103930005045C4E90232B1D00068AEE70025A84680
:10394000EFE700BF480300203001002028010020DD
:10395000F8B50446EFF31186202383F31288BFF3F2
:103960006F8F026872B3FFF72DFF184B5B689C42A4
:1039700008D0D2E90231D4E90275DB1941EB050127
:10398000C2E90231D4E900320025844213605A6052
:10399000C4E900550ED000200D4A136823F0010140
:1039A0008C4204BF43F00103136086F31188BFF318
:1039B0006F8FF8BDFFF734FFFFF70CFF2946FEF7C6
:1039C000C5FAE8E76FF01500E6E700BF2801002020
:1039D00034050020EFF31182202383F31288BFF314
:1039E0006F8F064B1B6840F001001B1A584258416C
:1039F00082F31188BFF36F8F704700BF340500203A
:103A00002DE9F047344E354DDFF8D490354F306016
:103A100000230C462B60D6F80080B8F1000F10D1BF
:103A20004FF0FF3340462B60FFF7D4FE4146FEF7D0
:103A30008DFA84F31188BFF36F8FBDE8F047FFF76D
:103A40008DBEFFF7BFFE6FF0004330B1D0E9021228
:103A5000994272F10002B8BF0B464345194684BF34
:103A6000434641464FEAE37C38B18268D0F80CE027
:103A7000D21A6EEB0C0EC0E9022ED9F80020D21833
:103A8000D9F8043043EB0C03C9E90023A8EB01018A
:103A900031604FF0000A4FF02008FFF793FE002836
:103AA000B9D0D0E902120A43B5D1D0E900210A60A9
:103AB000516002693860C0E900AA84F31188BFF33D
:103AC0006F8F9047EFF3118488F31288BFF36F8FE5
:103AD000C7F800A0E1E700BF380500203001002052
:103AE000480300203405002010B5EFF31184202393
:103AF00083F31288BFF36F8FFFF792FE054AD2E976
:103B00000031C01841F1000184F31188BFF36F8FB9
:103B100010BD00BF48030020F0B51423154E03FB71
:103B200001000024202701B9F0BD10F8073C40F83F
:103B30000C4C03F03F03102BA0F1140C0CD826FA08
:103B400003F3DB0708D550F8143C2BB150F8105C98
:103B50002B605D6040E9054482F31188BFF36F8FED
:103B6000EFF3118287F31288BFF36F8F013960463C
:103B7000D9E700BF160101002DE9F74F1D46274B7D
:103B80009F68012387F8603087F8613052EA0503A7
:103B900016460CBF0123002307F16002804601F0A6
:103BA0007FFF8146EFF3118B4FF0200A8AF31288D2
:103BB000BFF36F8F97F860404CB901465A464046B4
:103BC000FFF7AAFF8BF31188BFF36F8F0BE0002381
:103BD00087F8603056EA050309D18BF31188BFF3EB
:103BE0006F8F6FF00A04204603B0BDE8F08FCDE977
:103BF00000650B4A0B485946FFF7AEFC0446EFF34D
:103C000011858AF31288BFF36F8F2A4649464046D2
:103C1000FFF782FF85F31188D6E700BF0C0500206F
:103C2000340100204909002010B50346EFF3118448
:103C3000202282F31288BFF36F8FC160012181605F
:103C40000068834205D184F31188BFF36F8F002091
:103C500010BDD0E9003213605A600023C0E9003380
:103C600001F0A1FF0248214601F0CCFEEFE700BFC2
:103C70004909002038B5064C064DAC4201D300205E
:103C800038BDD4E90112204601F0F2FF1434F4E704
:103C9000480100204801002007B5064B0093064963
:103CA00006484FF0FF334FF4806200F031F903B063
:103CB0005DF804FB286200008017002050030020FC
:103CC0002DE9F04FDFF89C8185B004464FF0FF36B8
:103CD0004FF0FF37EFF31189202383F31288BFF3EE
:103CE0006F8FD4F88C5065BB022104F1A40001F061
:103CF000C7FF002800F0848004F19C0BD4F89C508E
:103D00005D4500F08A80002D00F08780D5E9003203
:103D100013605A602B7C4FF0000A23F002032B74CF
:103D2000C5E900AAC5F808A005F11800FFF710FEC4
:103D30000123C5F88430C5F814A0284601F011FE0F
:103D4000DCE7D4F890202B68C4F88C30954208BF8B
:103D5000C4F89030D4F8A43043F00203C4F8A4307F
:103D6000EB6823F0040343F00103EB606B6889F315
:103D70001188BFF36F8F28469847EFF311892023EE
:103D800083F31288BFF36F8FEB68D80623F001022C
:103D90004ED4EA60EB689A071BD5D8F8000023F0F0
:103DA0000203EB60A8B10268002190B143689D4214
:103DB0004ED10368002943D1D8F80420C8F8003058
:103DC000904201D1C8F80430002340F8083BFFF7C7
:103DD000E5F8D4F8A43023F00203C4F8A430DB05DE
:103DE0003ED4D4F88C30003B18BF012389F31188EE
:103DF000BFF36F8F002B3FF46DAF01F069FD69E7F2
:103E0000D4F8A430D90608D5C4F8A40089F31188E1
:103E1000BFF36F8F05B0BDE8F08F0023CDE90067D9
:103E2000029304F1940249460F48FFF735FC51E72D
:103E300023F01103EB6005F11000FFF7AFF8A9E7DD
:103E40000B60D8F80430984208BFC8F80410BBE7EC
:103E500001461AB1136810461A46A6E71346FAE758
:103E60000023C3E73C05002049090020F8B5C368DA
:103E70009A0704460E46C3F3400542D45F0742D476
:103E80000B680BB983680B60E368D80744BFA3686D
:103E9000336037684CBF0225012557B31B4B9A6826
:103EA000D7F888309A421ED101F0EAFC80F0010078
:103EB000C0B2D7F8A430D907C3F380021CD5F2B141
:103EC000F8B100232360D7F8903073B9C7E92344D1
:103ED000384601F0E0FEE36843F00403E360336832
:103EE000A3602846F8BD0020E3E71C60C7F89040B7
:103EF000EEE76FF0150506E06FF0120503E01B0713
:103F0000DFD56FF00F0500233360EAE70C050020D2
:103F1000F0B589B004460020C4E923000E9D04F1E9
:103F20009400C4E9250004F19C00C4E9270055B3BE
:103F30002879002840F2011008BF0120C4F8A4002D
:103F400000204FF0FF364FF0FF37CDE90330CDE9C9
:103F50000100CDE906670D4B00942046FFF700F9FC
:103F600055B1296811B1204601F090FC6B791BB165
:103F7000A38943F00103A3812046FFF7CDF8C4F8DD
:103F8000884009B0F0BD0120D8E700BFC13C000067
:103F90000CB430B58BB004460D462022002102A897
:103FA00001F0BAFE02238DF80A30002D0C4B03936A
:103FB000069412DB01D06B1E1C440FAA0E990794C5
:103FC00002A8019200F00EF815B1069B00221A70AB
:103FD0000BB0BDE8304002B070470024EDE700BFF1
:103FE000EF5D00002DE9F04F8BB0436800938378BC
:103FF0009C078046924640F1F98000250878002809
:1040000000F0F68025280AD04B1C0193013541466B
:10401000009B98470028C0F2E3800199EEE74E78B4
:104020008B1C252E0193F1D00027B9463C460A226D
:104030001F2C22D8A6F12003102B20D8DFE803F094
:10404000141F1F1A1F1F1F0B1F1F1F121F171F1FB9
:10405000090044F00104019B13F8016B0193002E49
:10406000E6D13AE044F0020444F00404F3E744F0FB
:104070000804F0E744F01004EDE77F2C24D8A6F103
:104080003003092B08D860064EBF02FB073702FB3E
:10409000093944F02004DEE72A2E0DD161065AF8D2
:1040A000043B53D4002BA7BF44F020049946C3F12E
:1040B000000944F02804CEE72E2E05D1630600F156
:1040C000978044F04004C6E76C2E2ED028D8682E86
:1040D00032D06A2E37D04C2E35D0002F46F0200338
:1040E000B8BF24F04004A3F16502BCBFA4B200270E
:1040F000022A01D9612B2BD10AF1070A2AF0070AFB
:104100009C4E0AF1080A0727210760D506EB070B2A
:1041100034465C455DD1AE1BA219A9EB070959E1F4
:10412000742E98D07A2E96D0D7E7260648BF44F44E
:10413000007444F080048EE7E00548BF44F4007446
:1041400044F4807487E744F4207484E71F4682E7D0
:10415000A6F16302122A00F2D880DFE812F0130001
:104160004D00D600D600D600D6004D00D600D600B1
:10417000D600D600D600E800D100D600D6001A003E
:10418000D600A0005AF8043B8DF81030012704AE89
:10419000BAE75AF8046B784B002E08BF1E4614F09D
:1041A000400F14BF39464FF0FF31304601F0BCFDDF
:1041B0000746A9E7009B41462020984700280FDBCF
:1041C000013CA742F6D34D442D1BA1469EE74C4629
:1041D000F7E714F8010B009B41469847002898DA4E
:1041E00098F8023043F0040388F802304FF0FF35AE
:1041F00028460BB0BDE8F08F220630D5A3052AD59E
:104200000AF1070A2AF007039A4659685AF8080B78
:1042100024F0100B00291FFA8BFB2FDA404261EBD0
:1042200041014BF4806B04AC0A23224601F088FD67
:104230001BF0400FA0EB040200F08E802BF0010475
:104240009742A4B240F38F80002E40F08E802BF076
:104250001104A4B21DE05AF8040BC117D8E7E00519
:104260005AF8041B01D40846F7E7A2054BBF48B231
:1042700008B241F3C01141F3C031C9E750EA01036C
:10428000D1D16306CFD5002FCDD124F01104A4B233
:104290003A463B4640F206410C4262D124E024F00B
:1042A0001004A4B20A2314F0800243D014F4007165
:1042B0001FBF0AF1070A2AF007029246516814BF8D
:1042C0005AF8080B5AF8040B50EA01023ED124F0C8
:1042D000160B62061FFA8BFB3CD5002F3AD124F057
:1042E0001704A4B23A463B4621075AD4E10705D544
:1042F000994572DDA9EB03039F184B469B464AE0A4
:1043000044F0100410237826CDE7782B04D1C6F1B1
:10431000780343F01003C6E7009B414625209847E9
:104320000028FFF65DAF02354146304670E60823AF
:104330000026B8E714F480715AF8040BC4D014F4C2
:1043400000711ABFC0B2114680B2BDE724F0060466
:104350001FFA84FB04AC68E713465C46E10699D576
:104360002EB90133C0E71346F8E73B46F6E70233C0
:10437000BAE700BF4967000042670000CDE902329A
:104380004146009B202098470028FFF629AFDDE931
:1043900002320BF1010BD945F0DCEB1A03EB0B05F4
:1043A0005B46E10627D5CDE902324146009B30202D
:1043B00098470028FFF614AFDDE902327EB90135D7
:1043C0002F44791B8A4229DB144604AE9CBB2A4445
:1043D000A9EB03091546914442E017468EE7CDE963
:1043E0000232023541463046009B98470028DDE9FD
:1043F0000232E5DAF4E640F206410C42E0D014F075
:10440000020F14BF2B20202014F4806FCDE902325C
:1044100005F10105414618BF2D20E5E7CDE902323F
:104420004146009B302098470028DDE9023205F123
:104430000105C6DAD4E6013CCDE90232305D009BCD
:10444000414698470028DDE90232BFDAC8E6009B02
:10445000414620209847002805F10105FFF6C0AE2F
:10446000A9EB0503002BF2DCD7E500BF704798B538
:1044700001F1080323F0070300AFADEB030D6B461A
:104480000A464C1C002103F8011B0146184601F0A6
:1044900035FC21466846FBF789FEBD4698BD07B549
:1044A00000238DF80500022101A88DF80430FBF7E8
:1044B0007DFE03B05DF804FB70B50546A2B0B024E4
:1044C00040262046FFF7EBFF0020FFF7E8FF102013
:1044D000FFF7E5FF0134294680220DF105008DF834
:1044E0000460E4B201F00AFC812101A8FBF75EFE42
:1044F000B82C05F18005E4D122B070BD7F2910B53C
:104500000CD83F2A0AD8D310802413FB041102F0E0
:10451000070201239340425C1343435410BD2DE92D
:10452000F041069F0C4690461E46B4420ADDBDE8A7
:10453000F0812A462146FFF7E1FF0135BD42F8DD53
:104540000134F2E74546F9E74FF48062002101F0BB
:10455000E3BB2DE9F3419DF8208017469DF8242008
:1045600008EB88060C4616445D1E15F8013F13B98A
:1045700002B0BDE8F0812146CDF800803A46FBF755
:1045800033FE3444F1E7172908D83B2A06D83B2BE1
:1045900004D801704270837000207047012070477A
:1045A00083783A2B0ED943783A2B88BF03784FF0A3
:1045B00000028CBF01330133827086BF03704270EA
:1045C000437070470133837070478368DB690BB1B8
:1045D000012218477047F0B403460068DE88197955
:1045E00046F48032056987682B6801248C40F60701
:1045F0004CBF2343A3432B603B68F0BC184730B447
:10460000034600681979DB8803F040038268056976
:104610009469ACB12D6801228A402A420CBF43F054
:10462000B86383F0707323F0794323F47F0323F49A
:104630007F43A44623F0BF0330BC4FF0A072604715
:1046400030BC704700EBC100408840087047F8B5A7
:104650000346FFF7F7FFB0FA80F0C0F11F0003EB4D
:10466000800CCA00DCF81060171D0C4606328DB2B3
:1046700056B9012101FA00F0D9680143D960CCF89C
:104680001040DD539D52F8BDF1000431585AD85303
:1046900003EBC0009E52C5805D52F4E7043A2DE959
:1046A000F843CC1D114424F0070421F00706A6EBC3
:1046B00004084FEAD807B7FA87F2C2F12405AD0023
:1046C0004FF000090735C2F12002ED0804604946A9
:1046D000A760C4F80C90920004F1100001F01CFBDC
:1046E000AAB2530043F0010363807B1B9BB204EB2F
:1046F000C5015800A4F80090488024F83520A6F899
:10470000029024F8083004EBC70329465A8842F087
:1047100001025A802046BDE8F843FFF798BF002009
:1047200070470FB407B504A951F8040B0191FBF7CA
:10473000E3FE03B05DF804EB04B07047038B13F0A5
:10474000070306D10368002B18BF032008BF002011
:104750007047022B05D1408BB0FA80F040098000F1
:104760007047012B04D10368002B18BF0520EDE72B
:104770000020704710B50C4600B111B96FF015005C
:1047800010BD081D00F087F80028F9D1A368032B9D
:10479000F6D9F3E72DE9F0410D4607461946281DE5
:1047A00090461E4600F08BF8044638B13346424628
:1047B00029463846A446BDE8F0416047BDE8F0818F
:1047C00010B4EFF31182202484F31288BFF36F8FAB
:1047D000416110BC0121FBF7A7BE38B50C46054668
:1047E00058B151B10B6843B14B6833B11C22002161
:1047F00001F092FA2C61002038BD6FF01500FBE744
:10480000F8B504460E46FFF7B5FF051E3BDBEFF398
:104810001182202383F31288BFF36F8F638B278B62
:104820004FF6FF718B4207F007072ED0062F2FD8C7
:10483000DFE807F0182E082E180418006FF0850521
:10484000002303E0013363830225012382F31188EF
:10485000BFF36F8FBBB100233A4631462046FFF7C6
:1048600099FF10E000233360636823B9C4E9006650
:1048700027B13D46E4E71E606660F9E70221204665
:10488000FBF752FE3D462846F8BD6FF00A05D7E714
:104890006FF00405D4E7034640B1426802F003021A
:1048A000022A06D0032A04D0012A05D06FF0150091
:1048B00070471A68002AF9D000209860704710B538
:1048C0004268816002F00302022A03460AD0032AEA
:1048D0000BD10468002000225A6008B1FFF7A4F948
:1048E000204610BD00680024F5E700242046F2E7CA
:1048F000704701F011BA01F001BA01460068FBF7F8
:104900004FBF08B5FBF77CFFBDE80840FCF790BA45
:1049100000210120FBF744BF6FF08500704761B6AE
:1049200062B680F31188BFF36F8F704772B60023B1
:1049300083F31188BFF36F8FBFF34F8F30BF62B621
:10494000BFF36F8F7047202809D9B0F1004F08D806
:104950000138B0FA80F0C0F11F0040007047082015
:1049600070473E20704708B5FCF742FC002008BDA8
:104970000369C9B20C2202FB0133186C00F0070076
:10498000704770B50346C9B20069EFF31186202461
:1049900084F31288BFF36F8F0C2505FB0104246C90
:1049A00014F0C00401D0A24210D105FB0100012285
:1049B0000264002086F31188BFF36F8F28B95B680B
:1049C00003EBC1035B689847002070BD4FF0FF30D8
:1049D000F0E78022FFF7D5BFF8B5069F04690546CA
:1049E000C9B2EFF3118C202080F31288BFF36F8FD0
:1049F0000C2606FB0146306C00F0070EBEF1010FDD
:104A000011D1376400268CF31188BFF36F8F46B93C
:104A10000C2000FB0144C4E90E236B6853F83130CD
:104A200098473046F8BD00F0C00087420CBF6FF0D9
:104A300077064FF0FF36E6E713B580240094FFF7C2
:104A4000CBFF02B010BD10B40069CBB21C2404FB34
:104A50000300002110BC10471046FEF79FBA00F07B
:104A6000DDBAFDF769BC43685B68D3F810350B60AD
:104A70000020704743685B6802EA010021EA0201F6
:104A8000C3F80805C3F80C150020704743685B683D
:104A90000020C3F80815704743685B680020C3F81E
:104AA0000C15704743685B68D3F8042521EA0200BF
:104AB0001140C3F80805C3F80C150020704730B545
:104AC0000369586800B30024884219D108688CB97A
:104AD0009C685860A14200D19860002008602AB10B
:104AE0005A680A609A68596002B9996000200FE01C
:104AF0002846E9E720609868814208BF9C60ECE79F
:104B000005680446002DF3D1002AE9D16FF01500A5
:104B100030BDFDF721BD37B5044600220121032039
:104B2000FCF7EEF863685D6901AA0021284600F0F1
:104B3000F2F800280DDB019B2A6819791868FCF748
:104B4000E3FE002805DB204603B0BDE8304000F05E
:104B500071B803B030BD02780B69012A07D0022A70
:104B600008D052B95A6703F15C00FEF717BA6FF02C
:104B70000402F7E76FF00A02F4E76FF08B02F1E747
:104B80002DE9F04F056985B006460C469046039323
:104B900005F144094FF0FF324FF0FF334846FEF76E
:104BA00039FA05F15C0A002200235046FEF732FA7A
:104BB000284600F0A4FD002708F1FF3BB84501D8C6
:104BC000002323E0BB4581BF237DC3F3800383F033
:104BD0000103DBB298BF00230193039B0093D4E948
:104BE0000023217A304600F067F8034670B94FF48D
:104BF000804200235046FEF70DFA98B12846FDF793
:104C0000CBFE304600F034F86FF073032846039370
:104C1000FDF7C2FE4846FEF7C1F9039B184605B0F2
:104C2000BDE8F08F6B6F0C340BB90137C6E76FF03E
:104C30000403EBE7416803460A690069FDF74EBECD
:104C4000CA07036905D4C1F34202012A04D0022A2B
:104C50000AD06FF0150070471A684FF0CC70C2F898
:104C600024051964002070471A684FF0CD60F6E7FC
:104C7000F7B5056946682B68D3F80845D3F80C7575
:104C80002846FDF789FE39462046FDF703FF766981
:104C9000044601AA0021304600F03DF8002805DB5B
:104CA000019B326819791868FCF72EFE284600F03F
:104CB00026FD204603B0F0BD2DE9F04186B00C463C
:104CC00007699DF834801546002112220DF1060077
:104CD0001E4601F021F8BDF830208DF8052004F0C3
:104CE000010314F008028DF80430029604950FD1E8
:104CF000A10704D4B8F1000F08D14BB9202201A9B3
:104D00003846FDF75FFE06B0BDE8F0814022F6E7C9
:104D10006FF08500F7E730B543681360057A4468A3
:104D200004EBC504A34202D36FF0010030BD5C79EF
:104D30008C4203F10803F0D10020F7E743681B68B9
:104D4000D3F88004C3F88004704742681368D3F82E
:104D5000100150B1D269002012780A70C3F8100116
:104D6000D3F8102101221A6070474FF0FF307047CE
:104D700002680346D2F8580140B95B68DB0706D4E5
:104D8000D2F82001003818BF012070470120704779
:104D900043681B68D3F80423D20517D5D3F8202124
:104DA000A2B1EFF31182202181F31288BFF36F8F3C
:104DB000D3F8201131B10021C3F82011D3F820110C
:104DC0000121D96082F31188BFF36F8FD3F8583176
:104DD000704713B501AA0446FFF79DFF002805DBC5
:104DE000019B226819791868FCF78EFD02B010BD8E
:104DF000F8B50022054601210220FBF781FF0220C1
:104E0000FBF762FF6C680121E068FFF7E2FF6B6867
:104E10001A682369C2F82435617D237D0B43A17D87
:104E20000B43C2F86C356E68D6E9004313F00103FA
:104E30000ED02F6904F10C0107F1080204F59070FF
:104E400000F097F800283ADB387AFDF7A9F901233A
:104E50000822C4F80025B269C4F8442501210022C3
:104E6000C4F84825A1606BB9D4F82031002BFBD0E1
:104E7000C4F82021D4F820310123E3604FF480737B
:104E8000C4F80433D4F85831002BFBD00021C4F807
:104E900000156D682C68E868FFF79BFF0823C4F8CD
:104EA00000352A7A52B9EB69C4F834350123C4F8C5
:104EB0003835C4F81021D4F8102123600020F8BD43
:104EC00000F150039B009BB203F1804303F588334C
:104ED00000221A601B6870474FF08053D3F83021CE
:104EE000082A03BFD3F83401B0FA80F0400900204B
:104EF000704703460020184700F071BC10B5024609
:104F00001168B1B1BFF35B8FB1FA81F3C3F11F0038
:104F10000123834021EA030352E8004F8C4204D16D
:104F200042E8003CBCF1000FF6D1BFF35B8FE7D144
:104F300010BD6FF00B00FBE710B50368CB40DB073B
:104F400014D401238B400268BFF35B8F43EA020154
:104F500050E8004F944204D140E8001CBCF1000F1F
:104F6000F6D1BFF35B8FEED1002010BD6FF01500BE
:104F7000FBE770B50C460021054608461646FDF7CE
:104F800001F948B93378DB0003F1804303F5F833C6
:104F9000C3F81055C3F8144570BD10B1012802D0F4
:104FA0007047FDF7C9B9FDF779B918B1012803D1E8
:104FB00000F019B800F032B8704708B5FDF78AF96B
:104FC000BDE80840FDF7F8B94FF08053D3F8302121
:104FD000082A06D1D3F8340102288CBF0020012012
:104FE000704700207047FDF71FB938B54FF0804477
:104FF0000223C4F808330123E3600023C4F804311A
:10500000D4F8043142F21075D4F81834DB0304D517
:105010000120FFF771FF013DF6D138BDFFF7E5BF75
:10502000F7B5019001A8DDE9084716461D46FDF7D2
:10503000FBF9019BB6F1000C18BF4FF0010C00EB1F
:1050400083000B1E18BF0123002D43EA4C030CBF45
:105050004FF0000C4FF00C0C002C43EA0C030CBF7B
:105060004FF0000C4FF4E06C002F43EA0C03D0F833
:1050700000270CBF4FF0000C4FF4403C43EA0C03F8
:1050800022EA030301B109780EB13678760019439C
:105090000DB12D78AD0031430CB1247824022943A1
:1050A0000FB13F783F040C433C43C0F8004703B0C6
:1050B000F0BD1FB50DF10F03019300238DF80F1004
:1050C00000931A461946FFF7ABFF05B05DF804FBE5
:1050D00010B504460846FDF7B7F904EB4004207DFF
:1050E000C0F3401010BD10B504460846FDF7ACF9FA
:1050F00004EB4004207DC0F3400010BD10B5044611
:105100000846FDF7A1F904EB4004A08A400B10BD4E
:1051100070B5044608461646FDF796F908300D4668
:1051200034F81030DA0509D5C3F3432304EBC30286
:10513000314654F83330526828469847A3682BB15B
:10514000E26831462846BDE87040184770BD10B58A
:1051500004460846FDF778F904EB4000838ADA0537
:105160001DD5C3F3432123F4F853838204F11202C3
:1051700004F1720032F8023F13F4807F03D0C3F3CE
:10518000432399420BD08242F4D104EBC1030022A5
:105190005A6004F17800BDE81040FFF7CDBE10BDA5
:1051A000F0B5034600F580740020054601278446CB
:1051B00095420AD1D3F87C2132B10022C3F87C2178
:1051C000D3F87C3140F00040F0BD25F0404607FAAE
:1051D00006F6314209D0D4F800E0BEF1000F04D049
:1051E000C4F800C0D4F800E0304301350434DFE7F0
:1051F00038B504460D46FFF76BFFA8B12046FFF710
:1052000072FF88B92046FFF779FF226801238340A7
:10521000C2F80833236803EB8000D0F8103523F080
:105220000303C0F8103538BD28460021BDE83840DA
:10523000FFF73FBF2DE9F043174685B00446084607
:10524000FDF702F9D7F800800E460546B8F1000FC9
:105250001ED02046FFF747FF18B12046FFF738FF62
:1052600020BB0023CDE900338DF80E308DF80F30D0
:105270000DF10F0243460DF10E013046FFF7D0FE4F
:1052800004EB4502938A23F0020343F00103938267
:105290007B689BB33146204693F80080D3F8049096
:1052A000FFF721FF28B1B9F1000F1FD06FF01500F3
:1052B00027E004EB4500838A23F4604323F02003B6
:1052C0008382B9F1000F11D0B8F1030FEED87B68DB
:1052D00021685B6893F800C04FEA8C031944B8F169
:1052E000000F11D1C1F81085C1F8108504EB4502FB
:1052F000938A23F01C0343EA88039382BB6843BB71
:10530000002005B0BDE8F083D1F8102522F003029B
:10531000C1F8102522681344D3F8102522F44F3227
:1053200022F44072C3F810253202D3F8101502F4AB
:105330007C5242EA08420A43C3F8102504EB4C03AE
:10534000A3F87C60838A43EA4C3343F020038382D2
:10535000CCE7D3E9007831462046FFF7F8FE002F6E
:10536000CED063689F4206D004F17800FFF7C6FDF7
:10537000002804DAC5E7A3689845F5D1002004EBBE
:10538000C003C3E9017804EB4505C0B2AB8A43EA28
:10539000402343F48073AB82B2E72DE9F043054626
:1053A00085B0084616461F46FDF74EF80C46804667
:1053B00026B32846FFF797FE18B92846FFF788FE60
:1053C00018BB05EB4809B9F8143003F01C0313B1FE
:1053D0007378012B19D001238DF80F300023CDE90C
:1053E0000063721CB31C0DF10F012046FFF718FE7D
:1053F000B9F8143043F00303A9F81430002F3FD05C
:1054000021462846FFF76FFE20B96FF0150005B062
:10541000BDE8F0833E782B6803EB86030022C3F8D7
:105420001025C3F8102505EB48024FEA860C938A35
:1054300023F4604323F020039382787800B3296833
:10544000BF7861440004D1F8103523F4991323F494
:10545000F853C1F81035230200F4403003F47C53B4
:1054600003433805D1F8105500F4801003432B4353
:10547000C1F81035938A43EA463343F02003938200
:105480000020C4E7C0E90312704770B50446154612
:10549000FFF71EFE48B10846FCF7D6FF04EB4004B8
:1054A0000020A38A5B0B2B7070BD6FF01500FBE72B
:1054B00038B590F88C4005469CB9602221461430DE
:1054C00000F02AFC2868C0F87C41D0F87C3140F319
:1054D0000730FBF7F9FB012385F88C30AB672046DA
:1054E00038BD6FF07700FBE790F88C00003818BFEC
:1054F00001207047FCF7E2BF2DE9F341044617464F
:10550000FFF7E6FD0D462668F0B12046FFF7EBFDFC
:105510008046C8B92046FFF7F1FD820002F580738E
:1055200046F80380F35823681344D3F8102542F05B
:105530000102C3F8102527B1226801238340C2F875
:10554000043302B0BDE8F081D6F80433002BA4BFC9
:105550004FF00043C6F804332846FCF775FF04EB10
:105560004004A38AC3F38203042B12D0052B12D06C
:1055700001A80195FCF758FF019BD0F81015D94000
:1055800001F001010231284602B0BDE8F041FFF709
:1055900090BD0321F7E70221F5E7FFF729BE30B5FB
:1055A000D0F804312BB10023C0F80431D0F8043115
:1055B000012391F82F2022B30022C0F82421D0F833
:1055C0002441C0F81C21D0F81C41C0F80821D0F8B3
:1055D0000821002B79D0002281F82D2091F82F206E
:1055E000002A37D14D6B8C6AA5421FBF0523C0F836
:1055F0000025C0F80035134683F0010381F82F30F1
:1056000028E0D0F8244114B1C0F824210EE0D0F8ED
:105610001C216AB3C0F81C41D0F81C214A6B01322E
:105620004A63D0F8245145B1C0F82441D0F8242170
:105630000122426181F82F20CBE78C6AA24204D27A
:105640004C6AA25CC0F81C25C3E791F82C201AB163
:105650000123C361002030BD0A6A12F0400F4FF0F1
:10566000010203D0C26181F82D20F3E74261B0E767
:10567000D0F80841002CACD0C0F80821D0F808417F
:10568000D0F82441002CBFD14A6B8C6AA242A0D230
:105690004C6AD0F81855A5544A6B8C6A0132651EC5
:1056A000AA424A6308D10A6A540602D40222C0F808
:1056B0000022012202628CE7A242FAD10A6A520653
:1056C00087D5022381F82D30C4E70120C3E7CB7BC7
:1056D00010B433B9D1E900420368C3F80845C3F8F0
:1056E0000C2503688A68C3F8242543682BB1006839
:1056F00010BC40F30730FBF7E7BA10BC70470368F3
:105700000522C3F80025022380F8323070472DE9C6
:10571000F041014686B051F8048B04464046FFF73D
:105720003EFF002847D194F8335005BB227C931EDE
:10573000012B1CD8A06AE369984218D1236AA3629E
:10574000A369E36294F8243084F83150C3F3401322
:10575000032A84F83030404604D106B0BDE8F04159
:10576000FCF7E0BF06B0BDE8F041FDF751B804F129
:1057700010070FCF01AE0FC63B68336065B1D8F894
:10578000C454C8F8C454A90718D46A0718D405F03B
:105790000105C5F10405EDB2002384F83430636AD5
:1057A0008DF800505B0702D594F833301BB1D4E973
:1057B00001316846984706B0BDE8F0810125EBE766
:1057C0000225E9E707B5019001A8FDF753F9019A11
:1057D00001239340C0F8083503B05DF804FB08B11D
:1057E000FBF746BD704710B5436904463BB900203E
:1057F000E268537843F001035370404210BD98476C
:105800000028F4D00028B8BF4042E368FF28A8BFB2
:10581000FF201870ECE740B1C368587810F0010021
:105820001EBF1878B0FA80F040097047EFF311837B
:10583000202383F31288BFF36F8FFEE708B5FFF7CD
:10584000F5FF10B52024EFF3118384F31288BFF322
:105850006F8FFFF76BF8F6E7D0E9003213605A60FC
:10586000027C002322F00202C0E90033027483604C
:10587000704713B501240094FDF7C0FA02B010BDC3
:10588000EFF30580003818BF012070476FF0570014
:10589000704738B58589EFF31181202282F3128891
:1058A000BFF36F8F037C13F0080404D081F31188D9
:1058B000BFF36F8F38BD0122FDF74CFDEB07F9D523
:1058C00084F31188BFF36F8F0423184602DFF1E7DA
:1058D000FDF700BED0E9003213605A600023C0E932
:1058E0000033704708B5FFF7F5FF037C23F0020390
:1058F00003740023836008BD38B504460D46FDF7E8
:1059000075FC237C43F002032374D5B1A5602B689A
:105910009D4209D16B68C4E900531C606C6010E0C3
:105920006A689A42F6D01B68002BF3D093F90E10E8
:1059300094F90E209142F3DD5A68C4E900321460F4
:105940005C6038BD10B5EFF31184202383F3128817
:10595000BFF36F8FFDF774FC84F31188BFF36F8F73
:1059600010BDFDF76DBCFDF741BC08B5037C13F01D
:10597000280F01460CD183680BB1FFF7B3FF0B7CF6
:1059800023F004030B740846BDE80840FDF758BC3B
:1059900008BD38B50446EFF31185202383F3128840
:1059A000BFF36F8FFEF716F818B9A4F11800FFF7D0
:1059B000DCFF85F31188BFF36F8F38BD70B50546E6
:1059C000EFF31184202383F31288BFF36F8F836872
:1059D0000BB1FFF787FF183520262846FDF7B8FFE3
:1059E0000B3004D084F31188BFF36F8F70BD84F344
:1059F0001188BFF36F8FEFF3118486F31288BFF322
:105A00006F8FEAE70846FDF75BBC38B50C460546E4
:105A1000FDF7CEFDB4F1FF3F08BFB5F1FF3F1FBF5B
:105A200047F6FF7300224FF47A71E0FB01321ABF90
:105A3000D80B40EA42404FF0FF3038BD08B5FDF7C3
:105A40003DFEBDE80840FDF769BE08B5FEF74CF81D
:105A500008BD30B5D0E90034984208D03CB1A56803
:105A6000DDB112F9522C15F9525CAA4207DDC1E9E9
:105A70000004216041600FE0A342F8D01B68002BB6
:105A8000F5D09D684DB115F9525C9542F4DD5A6828
:105A9000C1E900321160596030BD00239B7BFFDEFD
:105AA0002DE9F84F00250F461446984601462E462C
:105AB0004FF0200AA946BD4202DB3046BDE8F88F10
:105AC000EFF3118B8AF31288BFF36F8F4B7B03F0D8
:105AD0003F03082B09D853B1013B072B07D8DFE858
